:020000040000FA
:060000000A128A110C280F
:10000800FE00030EF0000A08F1000A128A152A2FD2
:100018000A128A110F280A128A11FD240A128A115B
:10002800C0000A128A11FF270A128A11FB00B401C4
:10003800B501B601B701B801B901BA01BB01BC01EC
:10004800BD01BE01BF01F901FA0183010A128A113B
:10005800152B83120313AD0031302A06031D3528F2
:1000680036283A28B401B501AD01B8010130B70707
:1000780006303706031D412842284B28B7013608A9
:1000880003194728492801304A280030B600513062
:10009800F6008030F7000A128A154B260A128A11D8
:1000A800DF30F600C030F7000A128A154B260A1214
:1000B8008A110130F600D030F7000A128A154B2653
:1000C8000A128A112A30831203132D0603196D2888
:1000D8006E28992823302D06031973287428992827
:1000E8002D0A03197828792899280130B80705308E
:1000F800380203188028812850293508F30034086D
:10010800F2000A30F4000030F5000A128A1595262C
:100118000A128A11831203132D087207B4000030E3
:10012800031801307307B50050292A302D06031D26
:100138009E289F28A328B401B501B801502923306F
:100148002D06031DA828A928502900303502B530EE
:1001580003193402031CB128B228B628B430B400FD
:100168000030B5000A128A1502260A128A113C309C
:1001780083120313BD0012158630F6008330F70092
:100188000A128A154B260A128A119D30F600903001
:10019800F7000A128A154B260A128A119C3083121C
:1001A8000313A80073300A128A1513260A128A113B
:1001B8003F299930A8006430F2000030F3003D0870
:1001C800AB00AC012B08F4002C08F5000A128A11C8
:1001D80020240A128A117208303E0A128A15132640
:1001E8000A128A119A3083120313A8000A30A40055
:1001F8000030A5000A30F2000030F3003D08AB00E3
:10020800AC012B08F4002C08F5000A128A112024EE
:100218000A128A11730883120313A7007208A60032
:100228000A128A15A7270A128A11831203132408AF
:10023800303E0A128A1513260A128A119B3083123D
:100248000313A8000A30A4000030A5003D08AB0045
:10025800AC012B08A6002C08A7000A128A15A727AC
:100268000A128A11831203132408303E0A128A15CF
:1002780013260A128A11831203133D08031D452908
:100288004629DD2812110A128A1502260A128A1135
:10029800303083120313C000360803195429552936
:1002A8007229C730A80020300A128A1513260A12AC
:1002B8008A11C83083120313A80020300A128A1545
:1002C80013260A128A11C93083120313A80020309A
:1002D8000A128A1513260A128A11CB29C730A800D8
:1002E8006430F2000030F3003508F5003408F400FB
:1002F8000A128A1565270A128A117208303E0A12F4
:100308008A1513260A128A11C83083120313A8000B
:100318000A30A0000030A1000A30F2000030F300DB
:100328003508F5003408F4000A128A1565270A1200
:100338008A11730883120313A3007208A2000A1219
:100348008A15F0260A128A11831203132008303EF8
:100358000A128A1513260A128A11C9308312031346
:10036800A8000A30A0000030A1003508A300340816
:10037800A2000A128A15F0260A128A1183120313A0
:100388002008303E0A128A1513260A128A1108001C
:1003980083120313AD0031302A06031DD429D52951
:1003A800DA29BF01BE01AD01BB01BC011230F60064
:1003B8008030F7000A128A154B260A128A11D930A2
:1003C800F600C030F7000A128A154B260A128A1165
:1003D800C73083120313A8003A300A128A1513266D
:1003E8000A128A110130F600D030F7000A128A1575
:1003F8004B260A128A112A30831203132D06031979
:10040800062A072A3D2A23302D0603190C2A0D2A0D
:100418003D2A2D0A0319112A122A3D2A0130BB0749
:1004280004303B020318192A1A2A282A0A30F20033
:100438003F080A128A11EC270A128A118312031341
:100448002D07BF00BC01652A06303B0203182D2A80
:100458002E2A652A0A30F2003E080A128A11EC2771
:100468000A128A11831203132D07BE000130BC0043
:10047800652A2A302D06031D422A432A542A3C089D
:10048800031D472A482A4B2ABF01BB01652A3C03A2
:10049800031D4F2A502A652ABE010230BB00652A77
:1004A80023302D06031D592A5A2A652A0A128A154D
:1004B80002260A128A1183120313071512157030C7
:1004C800C0000130BA070B303A06031D6C2A6D2AAA
:1004D800762ABA0139080319722A742A0130752A52
:1004E8000030B900390803197A2A7B2AA62A3C0861
:1004F800031D7F2A802A932AC830A80020300A12B8
:100508008A1513260A128A11C93083120313A80008
:1005180020300A128A1513260A128A11142BC530A4
:10052800A80020300A128A1513260A128A11C6302A
:1005380083120313A80020300A128A1513260A1200
:100548008A11142BC830A8000A30F2000030F300DA
:100558003F08AB00AC012B08F4002C08F5000A1288
:100568008A1120240A128A117208303E0A128A154A
:1005780013260A128A11C93083120313A8000A30FD
:10058800A4000030A5003F08AB00AC012B08A60072
:100598002C08A7000A128A15A7270A128A118312A3
:1005A80003132408303E0A128A1513260A128A11E8
:1005B800C53083120313A8000A30F2000030F3009C
:1005C8003E08AB00AC012B08F4002C08F5000A1219
:1005D8008A1120240A128A117208303E0A128A15DA
:1005E80013260A128A11C63083120313A8000A3090
:1005F800A4000030A5003E08AB00AC012B08A60003
:100608002C08A7000A128A15A7270A128A11831232
:1006180003132408303E0A128A1513260A128A1177
:1006280008000A128A11E8240A128A1101300A12F3
:100638008A1528260A128A1183120313B300203060
:100648004006031D282B292B7A2B3303031D2D2B42
:100658002E2B562B3030C0000A128A1502260A1299
:100668008A116D30F600C230F7000A128A154B263F
:100678000A128A114D3083120313B1001930B000E9
:100688004F30AF00AF0B462BB00B462BB10B462BB0
:100698000A128A1502260A128A11313083120313AC
:1006A800B200F92B02303306031D5B2B5C2B662B43
:1006B8004030C0003130B2000A128A1502260A12F0
:1006C8008A11F92B03303306031D6B2B6C2B712B0E
:1006D8005030C0003130B200602B04303306031DA7
:1006E800762B772BF92B6030C000602B70304006DA
:1006F800031D7F2B802BA62B04303306031D852B6F
:10070800862B942B3F081E3EBF003C303F02031C43
:100718008E2B8F2B942B0130BE073F08C43EBF00A1
:1007280005303306031D992B9A2B9D2B8030C00072
:10073800F92B06303306031DA22BA32BF92B90307F
:10074800C000F92B80304006031DAB2BAC2BF92BD6
:1007580004303306031DB12BB22BF92B12150715E4
:100768007030C000F92B0A128A1182270A128A11E6
:100778000A128A1502260A128A11203083120313DC
:10078800C000182C0A128A1570260A128A11182C11
:100798003208AA0033080A128A11CC210A128A11D7
:1007A800182C0A128A11EA250A128A11182C320802
:1007B800AA0033080A128A11CC210A128A11182CAD
:1007C8003208AA0033080A128A112D200A128A1147
:1007D800182C0A128A15DD250A128A11182C1211F2
:1007E8000711182C12110711BC2B83120313400890
:1007F800103A0319B72B303A0319C62B103A0319CC
:10080800CC2B703A0319DB2B103A0319E42B303A3E
:100818000319ED2B103A0319D52BF03A0319F32BD2
:10082800103A0319F62B182CFF3083120313B20069
:100838001A2B0A128A110C2883120313A101F31F21
:10084800262C272C2E2CF209F309F20A0319F30A95
:100858000130A100F51F312C322C392CF409F5098F
:10086800F40A0319F50A0130A106A201A3017208CE
:1008780073040319402C412C762C0130A0004D2C18
:1008880001300310F20DF30DFF3E031D452C01301E
:10089800A007F31F502C512C442C01300310A20D3B
:1008A800A30DFF3E031D522C73087502031D5E2C19
:1008B80072087402031C612C622C692C7208F40201
:1008C8007308031CF503F502221401300310F30C1E
:1008D800F20CFF3E031D6A2C0130A002031D752C8B
:1008E800762C512C210803197A2C7B2C802CA209F8
:1008F800A309A20A0319A30A2308F3002208F20095
:100908000800C330F700CD30F600F60B892CF70B42
:10091800892CF20133300A128A15BA260A128A1172
:100928001B30F7009E30F600F60B982CF70B982C2E
:100938000000F20133300A128A15BA260A128A1107
:10094800A630F600F60BA62C0000F20133300A128E
:100958008A15BA260A128A11B12CB22C0000F201AB
:1009680002300A128A15BA260A128A11A630F6002F
:10097800F60BBC2C0000F20128300A128A15BA26A0
:100988000A128A11A630F600F60BC82C0000F201F4
:1009980001300A128A15BA260A128A110430F700A1
:1009A8003D30F600F60BD62CF70BD62CDB2CF201DB
:1009B8000C300A128A15BA260A128A11A630F600D5
:1009C800F60BE42C000008000A128A15E7250A1223
:1009D8008A110A128A15F2250A128A110A128A1530
:1009E800D4250A128A118316031307110B178B17C4
:0409F80008001034AF
:100A000005308A000408840A820700342A343A3404
:100A100043344C34453441345234203423343A3452
:100A200045344E3454344534523420340034533435
:100A3000453454342034543449344D34453420340E
:100A400028344D344D343A3453345334293400343B
:100A500045346E346A346F347934203479346F34E9
:100A60007534723420346D34653461346C34003440
:100A700034342E34533454344134523454342F34B7
:100A800052344534533455344D34453400344D34A8
:100A90006934633472346F34773461347634653456
:100AA00020344F34763465346E3400345334453456
:100AB00054342034543465346D34703420343C3430
:100AC0002A3443343E34003433342E342034433417
:100AD0006F346E34763465346334743469346F340F
:100AE0006E34003470346F347734653472342034AB
:100AF0003D342034393430343034573400345034B9
:100B00006F3477346534723469346E34673420342A
:100B10004F344E3400345034723465342D344834FC
:100B200065346134743469346E3467340034543459
:100B300049344D3445342034553450342134213433
:100B400021340034543469346D34653420345234E3
:100B500065346D343A34003432342E342034473422
:100B6000723469346C346C34003431342E342034B3
:100B70004D346934633472346F34003434342E3479
:100B80002034533474346134723474340034543443
:100B900049344D34453420343D3420340034353428
:100BA0002E345034413455345334453400343634C3
:100BB0002E34533454344F34503400345434493484
:100BC0004D3445343A340034543445344D34503483
:100BD0003D340034C230F6008130F7000A128A1525
:100BE0004B260A128A11893083120313A8000A3097
:100BF000F2000030F3003E08AA00AB012A08F4001E
:100C00002B08F5000A128A1120240A128A11720890
:100C1000303E0A128A1513260A128A118A3083126C
:100C20000313A8000A30A4000030A5003E08AA0063
:100C3000AB012A08A6002B08A7000A128A15A727CD
:100C40000A128A11831203132408303E0A128A15ED
:100C500013260A128A118B3083120313A8003A302C
:100C60000A128A1513260A128A118C308312031372
:100C7000A8000A30F2000030F3003F08AA00AB01E0
:100C80002A08F4002B08F5000A128A1120240A12FF
:100C90008A117208303E0A128A1513260A128A1126
:100CA0008D3083120313A8000A30A4000030A50081
:100CB0003F08AA00AB012A08A6002B08A7000A12C9
:100CC0008A15A7270A128A11831203132408303EBB
:100CD0000A128A1513260A128A113330F600C2301E
:100CE000F7000A128A154B260A128A11CA30F6003A
:100CF0009230F7000A128A154B260A128A11D23056
:100D0000F600D230F7000A128A154B260A128A1111
:100D1000831203133E08031D8E2E8F2EC62E3F080E
:100D2000031D932E942EC62E0A128A1502260A122D
:100D30008A1183120313121107119230F600C43086
:100D4000F7000A128A154B260A128A112330F60080
:100D50009030F7000A128A154B260A128A11333096
:100D600083120313AC00BB30AB00DF30AA00AA0B28
:100D7000B72EAB0BB72EAC0BB72E0A128A15022674
:100D80000A128A11203083120313C0000800831254
:100D9000031388110815881408146430F200003019
:100DA000F300FF30F2070318F30AFF30F307720A6B
:100DB000031DDE2E730A031DDE2EDF2ED12E8312BD
:100DC00003130618E42EE52EE72E0130812F861836
:100DD000EA2EEB2EED2E0230812F0619F02EF12E89
:100DE000F32E0330812F88150811881408146430FD
:100DF000F2000030F300FF30F2070318F30AFF306F
:100E0000F3077308803AFF0080307F02031D0A2F2A
:100E10000130720203180D2F0E2FFB2E83120313C5
:100E20000618132F142F162F0430812F8618192F10
:100E30001A2F1C2F0530812F06191F2F202F222F2C
:100E40000630812F88150815881008146430F200C8
:100E50000030F300FF30F2070318F30AFF30F30706
:100E60007308803AFF0080307F02031D392F013064
:100E7000720203183C2F3D2F2A2F831203130618EA
:100E8000422F432F452F0730812F8618482F492F97
:100E90004B2F0830812F06194E2F4F2F512F09301D
:100EA000812F88150815881408106430F20000306E
:100EB000F300FF30F2070318F30AFF30F30773085B
:100EC000803AFF0080307F02031D682F01307202DC
:100ED00003186B2F6C2F592F831203130618712FD1
:100EE000722F742F2A30812F8618772F782F7A2F20
:100EF0000030812F06197D2F7E2F802F2330812FE8
:100F0000FF30080083120313AD012D08803EA800B6
:100F1000FF300A128A1513260A128A11033083122F
:100F20000313AC008A30AB005530AA00AA0B962FF1
:100F3000AB0B962FAC0B962F013083120313AD072A
:100F400010302D02031CA52FA62F852F7A30F60016
:100F5000C330F7000A128A154B260A128A11423052
:100F6000F6009230F7000A128A154B260A128A11EF
:100F700083120313AE012E08D03EA800FF300A12E0
:100F80008A1513260A128A11033083120313AC0048
:100F90008A30AB005530AA00AA0BCC2FAB0BCC2F5C
:100FA000AC0BCC2F013083120313AE0710302E028E
:100FB000031CDB2FDC2FBB2F1A3083120313AC0072
:100FC0005E30AB006D30AA00AA0BE42FAB0BE42F10
:100FD000AC0BE42FEB2F0800F400F301741CF12F8D
:100FE000F22FF42F7208F3070310F20D0310F40C24
:100FF0007408031DFC2FFD2FEE2F73080800013429
:101BA800FA308316031392008C1483120313121154
:101BB80008001E3083120313BF00BE01121507155B
:101BC8007030C000080083160313880109118910BA
:101BD8000A128A1185240A128A150800831603132B
:101BE8000608073886000808F03988008113831230
:101BF800031388150815881408140800F201013029
:101C08000A128A15BA260A128A150430F7003D30DE
:101C1800F600F60B0D2EF70B0D2E122E0800831270
:101C28000313A900F20128080A128A15BA260A1213
:101C38008A15F201F20A8312031329080A128A1577
:101C4800BA260A128A150800F4000A128A11C72651
:101C58000A128A15F5007408031D332E342E362E09
:101C680075084A2E750A03193A2E3B2E422E7B0818
:101C780003193F2E402E422EFB01342E750A031DF8
:101C8800462E472E492E0130FB00FF300800F20196
:101C980077080A128A15BA260A128A15632EF201E3
:101CA800F20A760884000A128A1100250A128A1597
:101CB8000A128A15BA260A128A150130F60776081A
:101CC80084000A128A1100250A128A15003A031D97
:101CD8006E2E6F2E532E0800B030F6008330F700BA
:101CE8000A128A154B260A128A15A730F600C33045
:101CF800F7000A128A154B260A128A155F30F60079
:101D08009330F7000A128A154B260A128A15B93041
:101D1800F600D330F7000A128A154B260A128A15E4
:101D28000800F601F701721C9A2E9B2EA12E74084A
:101D3800F6070318F70A7508F70701300310F40DC2
:101D4800F50DFF3E031DA22E01300310F30CF20C1B
:101D5800FF3E031DA92E72087304031DB42EB52E71
:101D6800972E7708F3007608F2000800F50072183D
:101D7800BE2EC22E831203130915C52E8312031318
:101D880009117508F03988008914A630F300F30B9F
:101D9800CB2E000083120313891075080F39F30046
:101DA80003300310F30DFF3E031DD52E0310730DF2
:101DB80088008914A630F300F30BE02E000083128C
:101DC800031389101B30F4009E30F300F30BEA2E46
:101DD800F40BEA2E000008008312031320082104E4
:101DE8000319F72EF82E252F0130A400042F0130F7
:101DF8000310A00DA10DFF3E031DFC2E0130A4070A
:101E0800A11F072F082FFB2E21082302031D0E2FC9
:101E180020082202031C112F122F182F2008A202BB
:101E28002108031CA303A30201300310A10CA00C7A
:101E3800FF3E031D192F0130A402031D242F252F57
:101E4800082F2308A1002208A0000800831203130A
:101E58008C1C2F2F302F5E2F0130F9070318FA0A38
:101E68000030FA07203079064E3003197A06031D30
:101E78003E2F3F2F5D2FF901FA013F080319452F27
:101E8800462F482F0130BF023F08031D4C2F4D2F0E
:101E9800562F3E080319512F522F562F0130BE02DC
:101EA8003C30BF003D0803195A2F5B2F5D2F0130CE
:101EB800BD028C1071088A00700E8300FE0E7E0E23
:101EC8000900F601F7017208730403196C2F6D2FCE
:101ED800A22F0130F800792F01300310F20DF30D15
:101EE800FF3E031D712F0130F807F31F7C2F7D2F54
:101EF800702F01300310F60DF70DFF3E031D7E2FE6
:101F080073087502031D8A2F72087402031C8D2F33
:101F18008E2F952F7208F4027308031CF503F5023F
:101F2800761401300310F30CF20CFF3E031D962FBC
:101F38000130F802031DA12FA22F7D2F7708F3008F
:101F48007608F2000800F70183120313A71FAD2FCC
:101F5800AE2FB52FA609A709A60A0319A70A0130AB
:101F6800F700A51FB82FB92FBE2FA409A509A40AE9
:101F78000319A50A240825040319C32FC42FF12F18
:101F88000130F600D02F01300310A40DA50DFF3E3F
:101F9800031DC82F0130F607A51FD32FD42FC72F35
:101FA80025082702031DDA2F24082602031CDD2F2B
:101FB800DE2FE42F2408A6022508031CA703A70286
:101FC80001300310A50CA40CFF3E031DE52F0130C2
:101FD800F602031DF02FF12FD42F77080319F52FE0
:101FE800F62FFB2FA609A709A60A0319A70A27088F
:081FF800A5002608A400080062
:02400E00FB3F76
:00000001FF
